Microchip MPLAB XC8 Compiler V2.00 ()

Linker command line:

-W-3 --edf=F:\soft\MPLAB\XC8\pic\dat\en_msgs.txt -cs \
  -h+dist/default/production\kurs.X.production.sym \
  --cmf=dist/default/production\kurs.X.production.cmf -z -Q16F877A \
  -oC:\Users\v_crys\AppData\Local\Temp\s5ok.2 --defsym=__MPLAB_BUILD=1 \
  -Mdist/default/production/kurs.X.production.map -E1 -ver=XC8 \
  -ASTACK=0110h-016fh -pstack=STACK -ACODE=00h-07FFhx4 -ASTRCODE=00h-01FFFh \
  -ASTRING=00h-0FFhx32 -ACONST=00h-0FFhx32 -AENTRY=00h-0FFhx32 \
  -ACOMMON=070h-07Fh -ABANK0=020h-06Fh -ABANK1=0A0h-0EFh \
  -ABANK2=0110h-016Fh -ABANK3=0190h-01EFh \
  -ARAM=020h-06Fh,0A0h-0EFh,0110h-016Fh,0190h-01EFh \
  -AABS1=020h-07Fh,0A0h-0EFh,0110h-016Fh,0190h-01EFh -ASFR0=00h-01Fh \
  -ASFR1=080h-09Fh -ASFR2=0100h-010Fh -ASFR3=0180h-018Fh \
  -preset_vec=00h,intentry,init,end_init -ppowerup=CODE -pcinit=CODE \
  -pfunctab=ENTRY -ACONFIG=02007h-02007h -pconfig=CONFIG -DCONFIG=2 \
  -AIDLOC=02000h-02003h -pidloc=IDLOC -DIDLOC=2 -AEEDATA=00h-0FFh/02100h \
  -peeprom_data=EEDATA -DEEDATA=2 -DCODE=2 -DSTRCODE=2 -DSTRING=2 -DCONST=2 \
  -DENTRY=2 -k C:\Users\v_crys\AppData\Local\Temp\s5ok.o \
  dist/default/production\kurs.X.production.o 

Object code version is 3.11

Machine type is 16F877A



                Name                               Link     Load   Length Selector   Space Scale
C:\Users\v_crys\AppData\Local\Temp\s5ok.o
                end_init                              0        0        3        0       0
                config                             2007     2007        1     400E       0
dist/default/production\kurs.X.production.o
                cinit                               7DA      7DA       26      FB4       0
                text19                               2E       2E        8       5C       0
                text18                               2A       2A        4       54       0
                text17                              13B      13B       2A      276       0
                text16                               3E       3E        D       7C       0
                text15                               82       82       17      104       0
                text14                              18F      18F       3E      31E       0
                text13                               6D       6D       15       DA       0
                text12                              20C      20C       4F      418       0
                text11                               B0       B0       1D      160       0
                text10                               99       99       17      132       0
                text9                                F0       F0       25      1E0       0
                text8                                CD       CD       23      19A       0
                text7                               32C      32C       8F      658       0
                text6                               2B5      2B5       77      56A       0
                text5                               165      165       2A      2CA       0
                text4                               1CD      1CD       3F      39A       0
                text3                               25B      25B       5A      4B6       0
                text2                               115      115       26      22A       0
                text1                               492      492      348      924       0
                maintext                            3BB      3BB       D7      776       0
                cstackBANK0                          20       20       2D       20       1
                cstackCOMMON                         70       70        D       70       1
                cstackBANK1                          A0       A0       27       A0       1
                clrtext                              36       36        8       6C       0
                inittext                             4B       4B       11       96       0
                dataBANK1                            D8       D8       11       A0       1
                bssBANK1                             C7       C7       11       A0       1
                bssBANK0                             4D       4D        8       20       1
                dataCOMMON                           7D       7D        1       70       1
                stringtext                          800      800      14F       10       0
                idataBANK1                           5C       5C       11       B8       0
                idataCOMMON                          29       29        1       52       0

TOTAL           Name                               Link     Load   Length     Space
        CLASS   STACK          

        CLASS   CODE           
                end_init                              0        0        3         0
                cinit                               7DA      7DA       26         0
                text19                               2E       2E        8         0
                text18                               2A       2A        4         0
                text17                              13B      13B       2A         0
                text16                               3E       3E        D         0
                text15                               82       82       17         0
                text14                              18F      18F       3E         0
                text13                               6D       6D       15         0
                text12                              20C      20C       4F         0
                text11                               B0       B0       1D         0
                text10                               99       99       17         0
                text9                                F0       F0       25         0
                text8                                CD       CD       23         0
                text7                               32C      32C       8F         0
                text6                               2B5      2B5       77         0
                text5                               165      165       2A         0
                text4                               1CD      1CD       3F         0
                text3                               25B      25B       5A         0
                text2                               115      115       26         0
                text1                               492      492      348         0
                maintext                            3BB      3BB       D7         0
                clrtext                              36       36        8         0
                inittext                             4B       4B       11         0
                idataBANK1                           5C       5C       11         0
                idataCOMMON                          29       29        1         0

        CLASS   STRCODE        
                stringtext                          800      800      14F         0

        CLASS   STRING         

        CLASS   CONST          

        CLASS   ENTRY          

        CLASS   COMMON         
                cstackCOMMON                         70       70        D         1
                dataCOMMON                           7D       7D        1         1

        CLASS   BANK0          
                cstackBANK0                          20       20       2D         1
                bssBANK0                             4D       4D        8         1

        CLASS   BANK1          
                cstackBANK1                          A0       A0       27         1
                dataBANK1                            D8       D8       11         1
                bssBANK1                             C7       C7       11         1

        CLASS   BANK2          

        CLASS   BANK3          

        CLASS   RAM            

        CLASS   ABS1           
                abs_s1                               7E       7E        2         1

        CLASS   SFR0           

        CLASS   SFR1           

        CLASS   SFR2           

        CLASS   SFR3           

        CLASS   CONFIG         
                config                             2007     2007        1         0

        CLASS   IDLOC          

        CLASS   EEDATA         



SEGMENTS        Name                           Load    Length   Top    Selector   Space  Class     Delta

                reset_vec                      000000  000003  000003         0       0  CODE        2
                cstackBANK0                    000020  000035  000055        20       1  BANK0       1
                idataCOMMON                    000029  000001  00002A        52       0  CODE        2
                text18                         00002A  000004  00002E        54       0  CODE        2
                text19                         00002E  000008  000036        5C       0  CODE        2
                clrtext                        000036  000008  00003E        6C       0  CODE        2
                cstackCOMMON                   000070  00000E  00007E        70       1  COMMON      1
                text16                         00003E  00000D  00004B        7C       0  CODE        2
                inittext                       00004B  000011  00005C        96       0  CODE        2
                cstackBANK1                    0000A0  000049  0000E9        A0       1  BANK1       1
                idataBANK1                     00005C  000011  00006D        B8       0  CODE        2
                text13                         00006D  000015  000082        DA       0  CODE        2
                text15                         000082  000017  000099       104       0  CODE        2
                text10                         000099  000017  0000B0       132       0  CODE        2
                text11                         0000B0  00001D  0000CD       160       0  CODE        2
                text8                          0000CD  000023  0000F0       19A       0  CODE        2
                text9                          0000F0  000025  000115       1E0       0  CODE        2
                text2                          000115  000026  00013B       22A       0  CODE        2
                text17                         00013B  00002A  000165       276       0  CODE        2
                text5                          000165  00002A  00018F       2CA       0  CODE        2
                text14                         00018F  00003E  0001CD       31E       0  CODE        2
                text4                          0001CD  00003F  00020C       39A       0  CODE        2
                text12                         00020C  00004F  00025B       418       0  CODE        2
                text3                          00025B  00005A  0002B5       4B6       0  CODE        2
                text6                          0002B5  000077  00032C       56A       0  CODE        2
                text7                          00032C  00008F  0003BB       658       0  CODE        2
                maintext                       0003BB  0000D7  000492       776       0  CODE        2
                text1                          000492  000348  0007DA       924       0  CODE        2
                cinit                          0007DA  000026  000800       FB4       0  CODE        2
                stringtext                     000800  00014F  00094F        10       0  STRCODE     2
                config                         002007  000001  002008      400E       0  CONFIG      2


UNUSED ADDRESS RANGES

        Name                Unused          Largest block    Delta
        BANK0            0055-006F             1B           1
        BANK1            00E9-00EF              7           1
        BANK2            0110-016F             60           1
        BANK3            0190-01EF             60           1
        CODE             0003-0028             26           2
                         094F-1FFF            800
        CONST            0003-0028             26           2
                         094F-1FFF            100
        EEDATA           2100-21FF            100           2
        ENTRY            0003-0028             26           2
                         094F-1FFF            100
        IDLOC            2000-2003              4           2
        RAM              0055-006F             1B           1
                         00E9-00EF              7
                         0110-016F             60
                         0190-01EF             60
        SFR0             0000-001F             20           1
        SFR1             0080-009F             20           1
        SFR2             0100-010F             10           1
        SFR3             0180-018F             10           1
        STACK            0110-016F             60           1
        STRCODE          0003-0028             26           2
                         094F-1FFF           16B1
        STRING           0003-0028             26           2
                         094F-1FFF            100

                                  Symbol Table

?___aldiv                  cstackCOMMON 0070
?___almod                  cstackCOMMON 0070
?___lmul                   cstackCOMMON 0070
?_pow2                     cstackBANK0  0020
?_strlen                   cstackCOMMON 0070
Check_buttons@tmp          cstackCOMMON 0071
Check_buttons@tmp_PORTB    cstackCOMMON 0072
Check_buttons@tmp_TRISB    cstackCOMMON 0073
Delay@tmp                  cstackCOMMON 0070
Pulse_LCD@x                cstackCOMMON 0072
Send_B_LCD@tmp             cstackCOMMON 0076
Send_Byte_LCD@tmp          cstackCOMMON 007C
Send_Command_LCD@tmp       cstackCOMMON 0077
Set_Coord_LCD@i            cstackCOMMON 007A
Set_Coord_LCD@j            cstackCOMMON 0078
Show_String_LCD@mySTRING   cstackBANK0  0020
_Adr_I2C                   bssBANK0     004D
_Ch_ACK                    bssBANK0     0054
_Check_buttons             text17       013B
_Clr_LCD                   text8        00CD
_Current_ind               bssBANK0     0050
_Delay                     text16       003E
_General_Init_I2C          text18       002A
_Indic                     dataCOMMON   007D
_Init_LCD                  text12       020C
_Key_Press                 bssBANK0     004F
_PORTA                     (abs)        0005
_PORTB                     (abs)        0006
_PORTC                     (abs)        0007
_PORTD                     (abs)        0008
_Pulse_LCD                 text15       0082
_RB1                       (abs)        0031
_RB2                       (abs)        0032
_RB3                       (abs)        0033
_RC4                       (abs)        003C
_RC6                       (abs)        003E
_Send_B_LCD                text14       018F
_Send_Byte_LCD             text10       0099
_Send_Command_LCD          text13       006D
_Set_Coord_LCD             text11       00B0
_Show_String_LCD           text9        00F0
_Slave_ADR_RW_I2C          bssBANK0     0052
_TRISA                     (abs)        0085
_TRISB                     (abs)        0086
_TRISB3                    (abs)        0433
_TRISC                     (abs)        0087
_TRISC3                    (abs)        043B
_TRISC4                    (abs)        043C
_TRISD                     (abs)        0088
__CFG_BOREN$ON             (abs)        0000
__CFG_CP$OFF               (abs)        0000
__CFG_CPD$OFF              (abs)        0000
__CFG_FOSC$HS              (abs)        0000
__CFG_LVP$OFF              (abs)        0000
__CFG_PWRTE$ON             (abs)        0000
__CFG_WDTE$OFF             (abs)        0000
__CFG_WRT$OFF              (abs)        0000
__Habs1                    abs1         0000
__Hbank0                   bank0        0000
__Hbank1                   bank1        0000
__Hbank2                   bank2        0000
__Hbank3                   bank3        0000
__HbssBANK0                bssBANK0     0000
__HbssBANK1                bssBANK1     0000
__Hcinit                   cinit        0800
__Hclrtext                 clrtext      0000
__Hcode                    code         0000
__Hcommon                  common       0000
__Hconfig                  config       2008
__HcstackBANK0             cstackBANK0  0000
__HcstackBANK1             cstackBANK1  0000
__HcstackCOMMON            cstackCOMMON 0000
__HdataBANK1               dataBANK1    0000
__HdataCOMMON              dataCOMMON   0000
__Heeprom_data             eeprom_data  0000
__Hend_init                end_init     0003
__Hfunctab                 functab      0000
__HidataBANK1              idataBANK1   0000
__HidataCOMMON             idataCOMMON  0000
__Hidloc                   idloc        0000
__Hinit                    init         0000
__Hinittext                inittext     0000
__Hintentry                intentry     0000
__Hmaintext                maintext     0000
__Hpowerup                 powerup      0000
__Hram                     ram          0000
__Hreset_vec               reset_vec    0000
__Hsfr0                    sfr0         0000
__Hsfr1                    sfr1         0000
__Hsfr2                    sfr2         0000
__Hsfr3                    sfr3         0000
__Hspace_0                 (abs)        2008
__Hspace_1                 (abs)        00E9
__Hspace_2                 (abs)        0000
__Hspace_3                 (abs)        0000
__Hstack                   stack        0000
__Hstrings                 strings      0000
__Hstringtext              stringtext   0000
__Htext                    text         0000
__Labs1                    abs1         0000
__Lbank0                   bank0        0000
__Lbank1                   bank1        0000
__Lbank2                   bank2        0000
__Lbank3                   bank3        0000
__LbssBANK0                bssBANK0     0000
__LbssBANK1                bssBANK1     0000
__Lcinit                   cinit        07DA
__Lclrtext                 clrtext      0000
__Lcode                    code         0000
__Lcommon                  common       0000
__Lconfig                  config       2007
__LcstackBANK0             cstackBANK0  0000
__LcstackBANK1             cstackBANK1  0000
__LcstackCOMMON            cstackCOMMON 0000
__LdataBANK1               dataBANK1    0000
__LdataCOMMON              dataCOMMON   0000
__Leeprom_data             eeprom_data  0000
__Lend_init                end_init     0000
__Lfunctab                 functab      0000
__LidataBANK1              idataBANK1   0000
__LidataCOMMON             idataCOMMON  0000
__Lidloc                   idloc        0000
__Linit                    init         0000
__Linittext                inittext     0000
__Lintentry                intentry     0000
__Lmaintext                maintext     0000
__Lpowerup                 powerup      0000
__Lram                     ram          0000
__Lreset_vec               reset_vec    0000
__Lsfr0                    sfr0         0000
__Lsfr1                    sfr1         0000
__Lsfr2                    sfr2         0000
__Lsfr3                    sfr3         0000
__Lspace_0                 (abs)        0000
__Lspace_1                 (abs)        0000
__Lspace_2                 (abs)        0000
__Lspace_3                 (abs)        0000
__Lstack                   stack        0000
__Lstrings                 strings      0000
__Lstringtext              stringtext   0000
__Ltext                    text         0000
__S0                       (abs)        2008
__S1                       (abs)        00E9
__S2                       (abs)        0000
__S3                       (abs)        0000
___aldiv                   text7        032C
___aldiv@counter           cstackBANK0  0020
___aldiv@dividend          cstackCOMMON 0074
___aldiv@divisor           cstackCOMMON 0070
___aldiv@quotient          cstackBANK0  0022
___aldiv@sign              cstackBANK0  0021
___almod                   text6        02B5
___almod@counter           cstackCOMMON 0079
___almod@dividend          cstackCOMMON 0074
___almod@divisor           cstackCOMMON 0070
___almod@sign              cstackCOMMON 007A
___int_sp                  stack        0000
___latbits                 (abs)        0002
___lmul                    text4        01CD
___lmul@multiplicand       cstackCOMMON 0074
___lmul@multiplier         cstackCOMMON 0070
___lmul@product            cstackCOMMON 0079
___sp                      stack        0000
__end_of_Check_buttons     text17       0165
__end_of_Clr_LCD           text8        00F0
__end_of_Delay             text16       004B
__end_of_General_Init_I2C  text18       002E
__end_of_Init_LCD          text12       025B
__end_of_Pulse_LCD         text15       0099
__end_of_Send_B_LCD        text14       01CD
__end_of_Send_Byte_LCD     text10       00B0
__end_of_Send_Command_LCD  text13       0082
__end_of_Set_Coord_LCD     text11       00CD
__end_of_Show_String_LCD   text9        0115
__end_of___aldiv           text7        03BB
__end_of___almod           text6        032C
__end_of___lmul            text4        020C
__end_of__initialization   cinit        07FC
__end_of__stringtab        stringtext   0812
__end_of_check_buttons     text5        018F
__end_of_init_I2C          text19       0036
__end_of_main              maintext     0492
__end_of_performer         text1        07DA
__end_of_pow2              text3        02B5
__end_of_str_B4            stringtext   08FE
__end_of_str_B5            stringtext   08F5
__end_of_str_B6            stringtext   08EC
__end_of_str_B7            stringtext   08E3
__end_of_str_BLANK         stringtext   0918
__end_of_str_Hi            stringtext   08A6
__end_of_str_Hi_1          stringtext   082F
__end_of_str_OK            stringtext   0903
__end_of_str_PRESS         stringtext   0897
__end_of_str_Reading       stringtext   08C0
__end_of_str_Select        stringtext   08B3
__end_of_str_TEST          stringtext   08DA
__end_of_str_TEST_EEPROM   stringtext   085F
__end_of_str_Termo         stringtext   0907
__end_of_str_Test_COM      stringtext   0887
__end_of_str_Test_IR       stringtext   0847
__end_of_str_Test_Termo    stringtext   0875
__end_of_str_Writing       stringtext   08CD
__end_of_strlen            text2        013B
__initialization           cinit        07DA
__pbssBANK0                bssBANK0     004D
__pbssBANK1                bssBANK1     00C7
__pcstackBANK0             cstackBANK0  0020
__pcstackBANK1             cstackBANK1  00A0
__pcstackCOMMON            cstackCOMMON 0070
__pdataBANK1               dataBANK1    00D8
__pdataCOMMON              dataCOMMON   007D
__pidataBANK1              idataBANK1   005C
__pidataCOMMON             idataCOMMON  0029
__pmaintext                maintext     03BB
__pstringtext              stringtext   0800
__ptext1                   text1        0492
__ptext10                  text10       0099
__ptext11                  text11       00B0
__ptext12                  text12       020C
__ptext13                  text13       006D
__ptext14                  text14       018F
__ptext15                  text15       0082
__ptext16                  text16       003E
__ptext17                  text17       013B
__ptext18                  text18       002A
__ptext19                  text19       002E
__ptext2                   text2        0115
__ptext3                   text3        025B
__ptext4                   text4        01CD
__ptext5                   text5        0165
__ptext6                   text6        02B5
__ptext7                   text7        032C
__ptext8                   text8        00CD
__ptext9                   text9        00F0
__size_of_Check_buttons    (abs)        0000
__size_of_Clr_LCD          (abs)        0000
__size_of_Delay            (abs)        0000
__size_of_General_Init_I2C (abs)        0000
__size_of_Init_LCD         (abs)        0000
__size_of_Pulse_LCD        (abs)        0000
__size_of_Send_B_LCD       (abs)        0000
__size_of_Send_Byte_LCD    (abs)        0000
__size_of_Send_Command_LCD (abs)        0000
__size_of_Set_Coord_LCD    (abs)        0000
__size_of_Show_String_LCD  (abs)        0000
__size_of___aldiv          (abs)        0000
__size_of___almod          (abs)        0000
__size_of___lmul           (abs)        0000
__size_of_check_buttons    (abs)        0000
__size_of_init_I2C         (abs)        0000
__size_of_main             (abs)        0000
__size_of_performer        (abs)        0000
__size_of_pow2             (abs)        0000
__size_of_strlen           (abs)        0000
__stringbase               stringtext   0812
__stringtab                stringtext   0800
_check_buttons             text5        0165
_init_I2C                  text19       002E
_main                      maintext     03BB
_performer                 text1        0492
_performer$943             cstackBANK0  0037
_pow2                      text3        025B
_str_BLANK                 stringtext   0907
_strlen                    text2        0115
_tmp_buffer_I2C            bssBANK0     0053
btemp                      (abs)        007E
check_buttons@tmp          cstackCOMMON 0071
check_buttons@tmp_PORTB    cstackCOMMON 0072
check_buttons@tmp_TRISB    cstackCOMMON 0073
clear_ram0                 clrtext      0036
end_of_initialization      cinit        07FC
init_fetch0                inittext     004B
init_ram0                  inittext     004F
intlevel0                  functab      0000
intlevel1                  functab      0000
intlevel2                  functab      0000
intlevel3                  functab      0000
intlevel4                  functab      0000
intlevel5                  functab      0000
main@F1105                 dataBANK1    00D8
main@F1107                 bssBANK1     00C7
main@button                cstackBANK1  00C4
main@down_line             cstackBANK1  00B1
main@number_symbol         cstackBANK1  00C2
main@symbol                cstackBANK1  00C5
main@up_line               cstackBANK1  00A0
performer@button           cstackBANK0  0041
performer@digree           cstackBANK0  003B
performer@down_line        cstackBANK0  0034
performer@i                cstackBANK0  003F
performer@index            cstackBANK0  0043
performer@len              cstackBANK0  003D
performer@number_symbol    cstackBANK0  0032
performer@sum              cstackBANK0  0045
performer@symbol           cstackBANK0  0042
performer@up_line          cstackBANK0  0033
pow2@degree                cstackBANK0  0024
pow2@i                     cstackBANK0  002C
pow2@num                   cstackBANK0  0020
pow2@result                cstackBANK0  002E
reset_vec                  reset_vec    0000
stackhi                    (abs)        0000
stacklo                    (abs)        0000
start                      init         0000
start_initialization       cinit        07DA
strlen@cp                  cstackCOMMON 0077
strlen@s                   cstackCOMMON 0076
wtemp0                     (abs)        007E


FUNCTION INFORMATION:

 *************** function _main *****************
 Defined at:
		line 274 in file "main.c"
 Parameters:    Size  Location     Type
		None
 Auto vars:     Size  Location     Type
  down_line      17   17[BANK1 ] unsigned char [17]
  up_line        17    0[BANK1 ] unsigned char [17]
  symbol          2   37[BANK1 ] int 
  number_symbo    2   34[BANK1 ] int 
  button          1   36[BANK1 ] unsigned char 
 Return value:  Size  Location     Type
                  1    wreg      void 
 Registers used:
		wreg, fsr0l, fsr0h, status,2, status,0, btemp+1, pclath, cstack
 Tracked objects:
		On entry : 
		On exit  : 
		Unchanged: 
 Data sizes:     COMMON   BANK0   BANK1   BANK3   BANK2
      Params:         0       0       0       0       0
      Locals:         0       0      39       0       0
      Temps:          0       4       0       0       0
      Totals:         0       4      39       0       0
Total ram usage:       43 bytes
 Hardware stack levels required when called:    9
 This function calls:
		_Clr_LCD
		_Delay
		_General_Init_I2C
		_Init_LCD
		_Set_Coord_LCD
		_Show_String_LCD
		_check_buttons
		_performer
 This function is called by:
		Startup code after reset
 This function uses a non-reentrant model


 *************** function _performer *****************
 Defined at:
		line 345 in file "main.c"
 Parameters:    Size  Location     Type
  symbol          1    wreg     PTR int 
		 -> main@symbol(2), 
  number_symbo    1   18[BANK0 ] PTR int 
		 -> main@number_symbol(2), 
  up_line         1   19[BANK0 ] PTR unsigned char 
		 -> main@up_line(17), 
  down_line       1   20[BANK0 ] PTR unsigned char 
		 -> main@down_line(17), 
 Auto vars:     Size  Location     Type
  symbol          1   34[BANK0 ] PTR int 
		 -> main@symbol(2), 
  i               2   31[BANK0 ] int 
  sum             4   37[BANK0 ] long 
  index           2   35[BANK0 ] int 
  len             2   29[BANK0 ] int 
  digree          2   27[BANK0 ] int 
  button          1   33[BANK0 ] unsigned char 
 Return value:  Size  Location     Type
                  1    wreg      void 
 Registers used:
		wreg, fsr0l, fsr0h, status,2, status,0, btemp+1, pclath, cstack
 Tracked objects:
		On entry : 
		On exit  : 
		Unchanged: 
 Data sizes:     COMMON   BANK0   BANK1   BANK3   BANK2
      Params:         0       3       0       0       0
      Locals:         0      18       0       0       0
      Temps:          0       2       0       0       0
      Totals:         0      23       0       0       0
Total ram usage:       23 bytes
 Hardware stack levels used:    1
 Hardware stack levels required when called:    8
 This function calls:
		_Clr_LCD
		_Delay
		_Set_Coord_LCD
		_Show_String_LCD
		___aldiv
		___almod
		___lmul
		_check_buttons
		_pow2
		_strlen
 This function is called by:
		_main
 This function uses a non-reentrant model


 *************** function _strlen *****************
 Defined at:
		line 4 in file "F:\soft\MPLAB\XC8\pic\sources\c90\common\strlen.c"
 Parameters:    Size  Location     Type
  s               1    wreg     PTR const unsigned char 
		 -> main@up_line(17), 
 Auto vars:     Size  Location     Type
  s               1    6[COMMON] PTR const unsigned char 
		 -> main@up_line(17), 
  cp              1    7[COMMON] PTR const unsigned char 
		 -> main@up_line(17), 
 Return value:  Size  Location     Type
                  2    0[COMMON] unsigned int 
 Registers used:
		wreg, fsr0l, fsr0h, status,2, status,0
 Tracked objects:
		On entry : 
		On exit  : 
		Unchanged: 
 Data sizes:     COMMON   BANK0   BANK1   BANK3   BANK2
      Params:         2       0       0       0       0
      Locals:         2       0       0       0       0
      Temps:          4       0       0       0       0
      Totals:         8       0       0       0       0
Total ram usage:        8 bytes
 Hardware stack levels used:    1
 This function calls:
		Nothing
 This function is called by:
		_performer
 This function uses a non-reentrant model


 *************** function _pow2 *****************
 Defined at:
		line 460 in file "main.c"
 Parameters:    Size  Location     Type
  num             4    0[BANK0 ] long 
  degree          4    4[BANK0 ] long 
 Auto vars:     Size  Location     Type
  result          4   14[BANK0 ] long 
  i               2   12[BANK0 ] int 
 Return value:  Size  Location     Type
                  4    0[BANK0 ] long 
 Registers used:
		wreg, status,2, status,0, btemp+1, pclath, cstack
 Tracked objects:
		On entry : 
		On exit  : 
		Unchanged: 
 Data sizes:     COMMON   BANK0   BANK1   BANK3   BANK2
      Params:         0       8       0       0       0
      Locals:         0       6       0       0       0
      Temps:          0       4       0       0       0
      Totals:         0      18       0       0       0
Total ram usage:       18 bytes
 Hardware stack levels used:    1
 Hardware stack levels required when called:    1
 This function calls:
		___lmul
 This function is called by:
		_performer
 This function uses a non-reentrant model


 *************** function ___lmul *****************
 Defined at:
		line 15 in file "F:\soft\MPLAB\XC8\pic\sources\c90\common\Umul32.c"
 Parameters:    Size  Location     Type
  multiplier      4    0[COMMON] unsigned long 
  multiplicand    4    4[COMMON] unsigned long 
 Auto vars:     Size  Location     Type
  product         4    9[COMMON] unsigned long 
 Return value:  Size  Location     Type
                  4    0[COMMON] unsigned long 
 Registers used:
		wreg, status,2, status,0
 Tracked objects:
		On entry : 
		On exit  : 
		Unchanged: 
 Data sizes:     COMMON   BANK0   BANK1   BANK3   BANK2
      Params:         8       0       0       0       0
      Locals:         4       0       0       0       0
      Temps:          1       0       0       0       0
      Totals:        13       0       0       0       0
Total ram usage:       13 bytes
 Hardware stack levels used:    1
 This function calls:
		Nothing
 This function is called by:
		_performer
		_pow2
 This function uses a non-reentrant model


 *************** function _check_buttons *****************
 Defined at:
		line 445 in file "main.c"
 Parameters:    Size  Location     Type
		None
 Auto vars:     Size  Location     Type
  tmp_TRISB       1    3[COMMON] unsigned char 
  tmp_PORTB       1    2[COMMON] unsigned char 
  tmp             1    1[COMMON] unsigned char 
 Return value:  Size  Location     Type
                  1    wreg      unsigned char 
 Registers used:
		wreg, status,2, status,0
 Tracked objects:
		On entry : 
		On exit  : 
		Unchanged: 
 Data sizes:     COMMON   BANK0   BANK1   BANK3   BANK2
      Params:         0       0       0       0       0
      Locals:         3       0       0       0       0
      Temps:          1       0       0       0       0
      Totals:         4       0       0       0       0
Total ram usage:        4 bytes
 Hardware stack levels used:    1
 This function calls:
		Nothing
 This function is called by:
		_main
		_performer
 This function uses a non-reentrant model


 *************** function ___almod *****************
 Defined at:
		line 5 in file "F:\soft\MPLAB\XC8\pic\sources\c90\common\almod.c"
 Parameters:    Size  Location     Type
  divisor         4    0[COMMON] long 
  dividend        4    4[COMMON] long 
 Auto vars:     Size  Location     Type
  sign            1   10[COMMON] unsigned char 
  counter         1    9[COMMON] unsigned char 
 Return value:  Size  Location     Type
                  4    0[COMMON] long 
 Registers used:
		wreg, status,2, status,0
 Tracked objects:
		On entry : 
		On exit  : 
		Unchanged: 
 Data sizes:     COMMON   BANK0   BANK1   BANK3   BANK2
      Params:         8       0       0       0       0
      Locals:         2       0       0       0       0
      Temps:          1       0       0       0       0
      Totals:        11       0       0       0       0
Total ram usage:       11 bytes
 Hardware stack levels used:    1
 This function calls:
		Nothing
 This function is called by:
		_performer
 This function uses a non-reentrant model


 *************** function ___aldiv *****************
 Defined at:
		line 5 in file "F:\soft\MPLAB\XC8\pic\sources\c90\common\aldiv.c"
 Parameters:    Size  Location     Type
  divisor         4    0[COMMON] long 
  dividend        4    4[COMMON] long 
 Auto vars:     Size  Location     Type
  quotient        4    2[BANK0 ] long 
  sign            1    1[BANK0 ] unsigned char 
  counter         1    0[BANK0 ] unsigned char 
 Return value:  Size  Location     Type
                  4    0[COMMON] long 
 Registers used:
		wreg, status,2, status,0
 Tracked objects:
		On entry : 
		On exit  : 
		Unchanged: 
 Data sizes:     COMMON   BANK0   BANK1   BANK3   BANK2
      Params:         8       0       0       0       0
      Locals:         0       6       0       0       0
      Temps:          1       0       0       0       0
      Totals:         9       6       0       0       0
Total ram usage:       15 bytes
 Hardware stack levels used:    1
 This function calls:
		Nothing
 This function is called by:
		_performer
 This function uses a non-reentrant model


 *************** function _Clr_LCD *****************
 Defined at:
		line 1117 in file "main.c"
 Parameters:    Size  Location     Type
		None
 Auto vars:     Size  Location     Type
		None
 Return value:  Size  Location     Type
                  1    wreg      void 
 Registers used:
		wreg, fsr0l, fsr0h, status,2, status,0, btemp+1, pclath, cstack
 Tracked objects:
		On entry : 
		On exit  : 
		Unchanged: 
 Data sizes:     COMMON   BANK0   BANK1   BANK3   BANK2
      Params:         0       0       0       0       0
      Locals:         0       0       0       0       0
      Temps:          0       0       0       0       0
      Totals:         0       0       0       0       0
Total ram usage:        0 bytes
 Hardware stack levels used:    1
 Hardware stack levels required when called:    7
 This function calls:
		_Set_Coord_LCD
		_Show_String_LCD
 This function is called by:
		_main
		_performer
 This function uses a non-reentrant model


 *************** function _Show_String_LCD *****************
 Defined at:
		line 1132 in file "main.c"
 Parameters:    Size  Location     Type
  mySTRING        2    0[BANK0 ] PTR const unsigned char 
		 -> str_BLANK(17), STR_4(17), STR_3(17), STR_2(3), 
		 -> STR_1(18), main@down_line(17), main@up_line(17), 
 Auto vars:     Size  Location     Type
		None
 Return value:  Size  Location     Type
                  1    wreg      void 
 Registers used:
		wreg, fsr0l, fsr0h, status,2, status,0, btemp+1, pclath, cstack
 Tracked objects:
		On entry : 
		On exit  : 
		Unchanged: 
 Data sizes:     COMMON   BANK0   BANK1   BANK3   BANK2
      Params:         0       2       0       0       0
      Locals:         0       0       0       0       0
      Temps:          0       0       0       0       0
      Totals:         0       2       0       0       0
Total ram usage:        2 bytes
 Hardware stack levels used:    1
 Hardware stack levels required when called:    6
 This function calls:
		_Send_Byte_LCD
 This function is called by:
		_main
		_performer
		_Clr_LCD
 This function uses a non-reentrant model


 *************** function _Send_Byte_LCD *****************
 Defined at:
		line 1104 in file "main.c"
 Parameters:    Size  Location     Type
  tmp             1    wreg     unsigned char 
 Auto vars:     Size  Location     Type
  tmp             1   12[COMMON] unsigned char 
 Return value:  Size  Location     Type
                  1    wreg      void 
 Registers used:
		wreg, status,2, status,0, pclath, cstack
 Tracked objects:
		On entry : 
		On exit  : 
		Unchanged: 
 Data sizes:     COMMON   BANK0   BANK1   BANK3   BANK2
      Params:         0       0       0       0       0
      Locals:         1       0       0       0       0
      Temps:          1       0       0       0       0
      Totals:         2       0       0       0       0
Total ram usage:        2 bytes
 Hardware stack levels used:    1
 Hardware stack levels required when called:    5
 This function calls:
		_Send_B_LCD
		_Set_Coord_LCD
 This function is called by:
		_Show_String_LCD
 This function uses a non-reentrant model


 *************** function _Set_Coord_LCD *****************
 Defined at:
		line 1125 in file "main.c"
 Parameters:    Size  Location     Type
  i               1    wreg     unsigned char 
  j               1    8[COMMON] unsigned char 
 Auto vars:     Size  Location     Type
  i               1   10[COMMON] unsigned char 
 Return value:  Size  Location     Type
                  1    wreg      void 
 Registers used:
		wreg, status,2, status,0, pclath, cstack
 Tracked objects:
		On entry : 
		On exit  : 
		Unchanged: 
 Data sizes:     COMMON   BANK0   BANK1   BANK3   BANK2
      Params:         1       0       0       0       0
      Locals:         1       0       0       0       0
      Temps:          1       0       0       0       0
      Totals:         3       0       0       0       0
Total ram usage:        3 bytes
 Hardware stack levels used:    1
 Hardware stack levels required when called:    4
 This function calls:
		_Send_Command_LCD
 This function is called by:
		_main
		_performer
		_Send_Byte_LCD
		_Clr_LCD
 This function uses a non-reentrant model


 *************** function _Init_LCD *****************
 Defined at:
		line 1082 in file "main.c"
 Parameters:    Size  Location     Type
		None
 Auto vars:     Size  Location     Type
		None
 Return value:  Size  Location     Type
                  1    wreg      void 
 Registers used:
		wreg, status,2, status,0, pclath, cstack
 Tracked objects:
		On entry : 
		On exit  : 
		Unchanged: 
 Data sizes:     COMMON   BANK0   BANK1   BANK3   BANK2
      Params:         0       0       0       0       0
      Locals:         0       0       0       0       0
      Temps:          0       0       0       0       0
      Totals:         0       0       0       0       0
Total ram usage:        0 bytes
 Hardware stack levels used:    1
 Hardware stack levels required when called:    4
 This function calls:
		_Delay
		_Pulse_LCD
		_Send_Command_LCD
 This function is called by:
		_main
 This function uses a non-reentrant model


 *************** function _Send_Command_LCD *****************
 Defined at:
		line 1111 in file "main.c"
 Parameters:    Size  Location     Type
  tmp             1    wreg     unsigned char 
 Auto vars:     Size  Location     Type
  tmp             1    7[COMMON] unsigned char 
 Return value:  Size  Location     Type
                  1    wreg      void 
 Registers used:
		wreg, status,2, status,0, pclath, cstack
 Tracked objects:
		On entry : 
		On exit  : 
		Unchanged: 
 Data sizes:     COMMON   BANK0   BANK1   BANK3   BANK2
      Params:         0       0       0       0       0
      Locals:         1       0       0       0       0
      Temps:          0       0       0       0       0
      Totals:         1       0       0       0       0
Total ram usage:        1 bytes
 Hardware stack levels used:    1
 Hardware stack levels required when called:    3
 This function calls:
		_Delay
		_Send_B_LCD
 This function is called by:
		_Init_LCD
		_Set_Coord_LCD
 This function uses a non-reentrant model


 *************** function _Send_B_LCD *****************
 Defined at:
		line 1096 in file "main.c"
 Parameters:    Size  Location     Type
  tmp             1    wreg     unsigned char 
 Auto vars:     Size  Location     Type
  tmp             1    6[COMMON] unsigned char 
 Return value:  Size  Location     Type
                  1    wreg      void 
 Registers used:
		wreg, status,2, status,0, pclath, cstack
 Tracked objects:
		On entry : 
		On exit  : 
		Unchanged: 
 Data sizes:     COMMON   BANK0   BANK1   BANK3   BANK2
      Params:         0       0       0       0       0
      Locals:         1       0       0       0       0
      Temps:          2       0       0       0       0
      Totals:         3       0       0       0       0
Total ram usage:        3 bytes
 Hardware stack levels used:    1
 Hardware stack levels required when called:    2
 This function calls:
		_Check_buttons
		_Delay
		_Pulse_LCD
 This function is called by:
		_Send_Byte_LCD
		_Send_Command_LCD
 This function uses a non-reentrant model


 *************** function _Pulse_LCD *****************
 Defined at:
		line 1080 in file "main.c"
 Parameters:    Size  Location     Type
  x               2    2[COMMON] unsigned int 
 Auto vars:     Size  Location     Type
		None
 Return value:  Size  Location     Type
                  1    wreg      void 
 Registers used:
		wreg, status,2, status,0, pclath, cstack
 Tracked objects:
		On entry : 
		On exit  : 
		Unchanged: 
 Data sizes:     COMMON   BANK0   BANK1   BANK3   BANK2
      Params:         2       0       0       0       0
      Locals:         0       0       0       0       0
      Temps:          0       0       0       0       0
      Totals:         2       0       0       0       0
Total ram usage:        2 bytes
 Hardware stack levels used:    1
 Hardware stack levels required when called:    1
 This function calls:
		_Delay
 This function is called by:
		_Init_LCD
		_Send_B_LCD
 This function uses a non-reentrant model


 *************** function _Delay *****************
 Defined at:
		line 486 in file "main.c"
 Parameters:    Size  Location     Type
  tmp             2    0[COMMON] unsigned int 
 Auto vars:     Size  Location     Type
		None
 Return value:  Size  Location     Type
                  1    wreg      void 
 Registers used:
		wreg, status,2, status,0
 Tracked objects:
		On entry : 
		On exit  : 
		Unchanged: 
 Data sizes:     COMMON   BANK0   BANK1   BANK3   BANK2
      Params:         2       0       0       0       0
      Locals:         0       0       0       0       0
      Temps:          0       0       0       0       0
      Totals:         2       0       0       0       0
Total ram usage:        2 bytes
 Hardware stack levels used:    1
 This function calls:
		Nothing
 This function is called by:
		_main
		_performer
		_Pulse_LCD
		_Init_LCD
		_Send_B_LCD
		_Send_Command_LCD
		_Beep
		_Check_Sensor_buttons
 This function uses a non-reentrant model


 *************** function _Check_buttons *****************
 Defined at:
		line 494 in file "main.c"
 Parameters:    Size  Location     Type
		None
 Auto vars:     Size  Location     Type
  tmp_TRISB       1    3[COMMON] unsigned char 
  tmp_PORTB       1    2[COMMON] unsigned char 
  tmp             1    1[COMMON] unsigned char 
 Return value:  Size  Location     Type
                  1    wreg      unsigned char 
 Registers used:
		wreg, status,2, status,0
 Tracked objects:
		On entry : 
		On exit  : 
		Unchanged: 
 Data sizes:     COMMON   BANK0   BANK1   BANK3   BANK2
      Params:         0       0       0       0       0
      Locals:         3       0       0       0       0
      Temps:          1       0       0       0       0
      Totals:         4       0       0       0       0
Total ram usage:        4 bytes
 Hardware stack levels used:    1
 This function calls:
		Nothing
 This function is called by:
		_Send_B_LCD
 This function uses a non-reentrant model


 *************** function _General_Init_I2C *****************
 Defined at:
		line 530 in file "main.c"
 Parameters:    Size  Location     Type
		None
 Auto vars:     Size  Location     Type
		None
 Return value:  Size  Location     Type
                  1    wreg      void 
 Registers used:
		status,2, status,0, pclath, cstack
 Tracked objects:
		On entry : 
		On exit  : 
		Unchanged: 
 Data sizes:     COMMON   BANK0   BANK1   BANK3   BANK2
      Params:         0       0       0       0       0
      Locals:         0       0       0       0       0
      Temps:          0       0       0       0       0
      Totals:         0       0       0       0       0
Total ram usage:        0 bytes
 Hardware stack levels used:    1
 Hardware stack levels required when called:    1
 This function calls:
		_init_I2C
 This function is called by:
		_main
 This function uses a non-reentrant model


 *************** function _init_I2C *****************
 Defined at:
		line 974 in file "main.c"
 Parameters:    Size  Location     Type
		None
 Auto vars:     Size  Location     Type
		None
 Return value:  Size  Location     Type
                  1    wreg      void 
 Registers used:
		None
 Tracked objects:
		On entry : 
		On exit  : 
		Unchanged: 
 Data sizes:     COMMON   BANK0   BANK1   BANK3   BANK2
      Params:         0       0       0       0       0
      Locals:         0       0       0       0       0
      Temps:          0       0       0       0       0
      Totals:         0       0       0       0       0
Total ram usage:        0 bytes
 Hardware stack levels used:    1
 This function calls:
		Nothing
 This function is called by:
		_General_Init_I2C
 This function uses a non-reentrant model



MODULE INFORMATION

Module		Function		Class		Link	Load	Size
F:\soft\MPLAB\XC8\pic\sources\c90\common\Umul32.c
		___lmul        		CODE           	01CD	0000	64

F:\soft\MPLAB\XC8\pic\sources\c90\common\Umul32.c estimated size: 64

F:\soft\MPLAB\XC8\pic\sources\c90\common\strlen.c
		_strlen        		CODE           	0115	0000	39

F:\soft\MPLAB\XC8\pic\sources\c90\common\strlen.c estimated size: 39

F:\soft\MPLAB\XC8\pic\sources\c90\common\aldiv.c
		___aldiv       		CODE           	032C	0000	144

F:\soft\MPLAB\XC8\pic\sources\c90\common\aldiv.c estimated size: 144

shared
		_str_BLANK     		STRCODE        	0907	0000	18
		_str_B4        		STRCODE        	0000	0000	0
		__stringtab    		STRCODE        	0800	0000	19
		_str_B7        		STRCODE        	0000	0000	0
		_str_TEST      		STRCODE        	0000	0000	0
		_str_Test_IR   		STRCODE        	0000	0000	0
		_str_Select    		STRCODE        	0000	0000	0
		_str_Test_COM  		STRCODE        	0000	0000	0
		_str_OK        		STRCODE        	0000	0000	0
		_str_PRESS     		STRCODE        	0000	0000	0
		_str_Writing   		STRCODE        	0000	0000	0
		_str_Hi        		STRCODE        	0000	0000	0
		_str_B5        		STRCODE        	0000	0000	0
		_str_Test_Termo		STRCODE        	0000	0000	0
		_str_Reading   		STRCODE        	0000	0000	0
		_str_Termo     		STRCODE        	0000	0000	0
		__initialization		CODE           	07DA	0000	35
		_str_TEST_EEPROM		STRCODE        	0000	0000	0
		_str_Hi_1      		STRCODE        	0000	0000	0
		_str_B6        		STRCODE        	0000	0000	0

shared estimated size: 72

main.c
		_pow2          		CODE           	025B	0000	91
		_Clr_LCD       		CODE           	00CD	0000	36
		_Init_LCD      		CODE           	020C	0000	80
		_Show_String_LCD		CODE           	00F0	0000	38
		_main          		CODE           	03BB	0000	216
		_Pulse_LCD     		CODE           	0082	0000	24
		_performer     		CODE           	0492	0000	841
		_General_Init_I2C		CODE           	002A	0000	5
		_Set_Coord_LCD 		CODE           	00B0	0000	30
		_Check_buttons 		CODE           	013B	0000	43
		_Delay         		CODE           	003E	0000	14
		_Send_Byte_LCD 		CODE           	0099	0000	24
		_Send_B_LCD    		CODE           	018F	0000	63
		_check_buttons 		CODE           	0165	0000	43
		_init_I2C      		CODE           	002E	0000	9
		_Send_Command_LCD		CODE           	006D	0000	22

main.c estimated size: 1579

F:\soft\MPLAB\XC8\pic\sources\c90\common\almod.c
		___almod       		CODE           	02B5	0000	120

F:\soft\MPLAB\XC8\pic\sources\c90\common\almod.c estimated size: 120

